{
  "_format": "hh-sol-artifact-1",
  "contractName": "TimeStamp",
  "sourceName": "contracts/TimeStamp.sol",
  "abi": [
    {
      "inputs": [],
      "stateMutability": "nonpayable",
      "type": "constructor"
    },
    {
      "inputs": [
        {
          "internalType": "uint256",
          "name": "hash",
          "type": "uint256"
        }
      ],
      "name": "getTimestamp",
      "outputs": [
        {
          "internalType": "uint256",
          "name": "",
          "type": "uint256"
        }
      ],
      "stateMutability": "view",
      "type": "function"
    },
    {
      "inputs": [
        {
          "internalType": "uint256",
          "name": "",
          "type": "uint256"
        }
      ],
      "name": "hashToTimestamp",
      "outputs": [
        {
          "internalType": "uint256",
          "name": "",
          "type": "uint256"
        }
      ],
      "stateMutability": "view",
      "type": "function"
    },
    {
      "inputs": [
        {
          "internalType": "uint256",
          "name": "hash",
          "type": "uint256"
        },
        {
          "internalType": "uint256",
          "name": "timestamp",
          "type": "uint256"
        }
      ],
      "name": "setTimestamp",
      "outputs": [],
      "stateMutability": "nonpayable",
      "type": "function"
    }
  ],
  "bytecode": "0x608060405234801561001057600080fd5b506100556040518060400160405280601581526020017f4465706c6f79696e6720612054696d655374616d70000000000000000000000081525061005a60201b60201c565b61023b565b6100f68160405160240161006e91906101ea565b6040516020818303038152906040527f41304fac000000000000000000000000000000000000000000000000000000007bffffffffffffffffffffffffffffffffffffffffffffffffffffffff19166020820180517bffffffffffffffffffffffffffffffffffffffffffffffffffffffff83818316178352505050506100f960201b60201c565b50565b61011a8161011561011d60201b61018f1761013e60201b60201c565b60201c565b50565b60006a636f6e736f6c652e6c6f679050600080835160208501845afa505050565b61015060201b61027117819050919050565b61015861020c565b565b600081519050919050565b600082825260208201905092915050565b60005b83811015610194578082015181840152602081019050610179565b60008484015250505050565b6000601f19601f8301169050919050565b60006101bc8261015a565b6101c68185610165565b93506101d6818560208601610176565b6101df816101a0565b840191505092915050565b6000602082019050818103600083015261020481846101b1565b905092915050565b7f4e487b7100000000000000000000000000000000000000000000000000000000600052605160045260246000fd5b6104728061024a6000396000f3fe608060405234801561001057600080fd5b50600436106100415760003560e01c8063808d713b14610046578063b633620c14610076578063d160c7a9146100a6575b600080fd5b610060600480360381019061005b91906102b6565b6100c2565b60405161006d91906102f2565b60405180910390f35b610090600480360381019061008b91906102b6565b6100da565b60405161009d91906102f2565b60405180910390f35b6100c060048036038101906100bb919061030d565b610135565b005b60006020528060005260406000206000915090505481565b600061011b6040518060400160405280602081526020017f54696d657374616d702072657175657374656420666f7220686173683a202573815250836101b0565b600080838152602001908152602001600020549050919050565b806000808481526020019081526020016000208190555061018b6040518060400160405280601a81526020017f54696d657374616d702073657420666f7220686173683a202573000000000000815250836101b0565b5050565b60006a636f6e736f6c652e6c6f679050600080835160208501845afa505050565b61024882826040516024016101c69291906103dd565b6040516020818303038152906040527fb60e72cc000000000000000000000000000000000000000000000000000000007bffffffffffffffffffffffffffffffffffffffffffffffffffffffff19166020820180517bffffffffffffffffffffffffffffffffffffffffffffffffffffffff838183161783525050505061024c565b5050565b6102638161025b61018f610266565b63ffffffff16565b50565b610271819050919050565b61027961040d565b565b600080fd5b6000819050919050565b61029381610280565b811461029e57600080fd5b50565b6000813590506102b08161028a565b92915050565b6000602082840312156102cc576102cb61027b565b5b60006102da848285016102a1565b91505092915050565b6102ec81610280565b82525050565b600060208201905061030760008301846102e3565b92915050565b600080604083850312156103245761032361027b565b5b6000610332858286016102a1565b9250506020610343858286016102a1565b9150509250929050565b600081519050919050565b600082825260208201905092915050565b60005b8381101561038757808201518184015260208101905061036c565b60008484015250505050565b6000601f19601f8301169050919050565b60006103af8261034d565b6103b98185610358565b93506103c9818560208601610369565b6103d281610393565b840191505092915050565b600060408201905081810360008301526103f781856103a4565b905061040660208301846102e3565b9392505050565b7f4e487b7100000000000000000000000000000000000000000000000000000000600052605160045260246000fdfea26469706673582212202346269f3de7357e39c6aa93e334533b9efccb79d8633a6e2dc169fc23c7675764736f6c634300081c0033",
  "linkReferences": {},
  "deployedLinkReferences": {}
}